{
  "contractName": "Courier",
  "abi": [
    {
      "constant": true,
      "inputs": [],
      "name": "pendingRefund",
      "outputs": [
        {
          "name": "",
          "type": "uint256"
        }
      ],
      "payable": false,
      "stateMutability": "view",
      "type": "function"
    },
    {
      "constant": true,
      "inputs": [],
      "name": "code",
      "outputs": [
        {
          "name": "",
          "type": "string"
        }
      ],
      "payable": false,
      "stateMutability": "view",
      "type": "function"
    },
    {
      "constant": true,
      "inputs": [],
      "name": "carrier",
      "outputs": [
        {
          "name": "",
          "type": "address"
        }
      ],
      "payable": false,
      "stateMutability": "view",
      "type": "function"
    },
    {
      "constant": true,
      "inputs": [],
      "name": "consignor",
      "outputs": [
        {
          "name": "",
          "type": "address"
        }
      ],
      "payable": false,
      "stateMutability": "view",
      "type": "function"
    },
    {
      "constant": true,
      "inputs": [],
      "name": "pickupTimestamp",
      "outputs": [
        {
          "name": "",
          "type": "uint256"
        }
      ],
      "payable": false,
      "stateMutability": "view",
      "type": "function"
    },
    {
      "constant": true,
      "inputs": [],
      "name": "pendingPayment",
      "outputs": [
        {
          "name": "",
          "type": "uint256"
        }
      ],
      "payable": false,
      "stateMutability": "view",
      "type": "function"
    },
    {
      "constant": true,
      "inputs": [],
      "name": "pod",
      "outputs": [
        {
          "name": "",
          "type": "string"
        }
      ],
      "payable": false,
      "stateMutability": "view",
      "type": "function"
    },
    {
      "constant": true,
      "inputs": [],
      "name": "amount",
      "outputs": [
        {
          "name": "",
          "type": "uint256"
        }
      ],
      "payable": false,
      "stateMutability": "view",
      "type": "function"
    },
    {
      "constant": true,
      "inputs": [],
      "name": "dispatchedTimestamp",
      "outputs": [
        {
          "name": "",
          "type": "uint256"
        }
      ],
      "payable": false,
      "stateMutability": "view",
      "type": "function"
    },
    {
      "constant": true,
      "inputs": [],
      "name": "state",
      "outputs": [
        {
          "name": "",
          "type": "uint8"
        }
      ],
      "payable": false,
      "stateMutability": "view",
      "type": "function"
    },
    {
      "inputs": [
        {
          "name": "_code",
          "type": "string"
        },
        {
          "name": "_carrier",
          "type": "address"
        }
      ],
      "payable": true,
      "stateMutability": "payable",
      "type": "constructor"
    },
    {
      "constant": false,
      "inputs": [],
      "name": "kill",
      "outputs": [],
      "payable": false,
      "stateMutability": "nonpayable",
      "type": "function"
    },
    {
      "constant": false,
      "inputs": [],
      "name": "pickedUp",
      "outputs": [],
      "payable": false,
      "stateMutability": "nonpayable",
      "type": "function"
    },
    {
      "constant": false,
      "inputs": [
        {
          "name": "_pod",
          "type": "string"
        }
      ],
      "name": "delivered",
      "outputs": [],
      "payable": false,
      "stateMutability": "nonpayable",
      "type": "function"
    },
    {
      "constant": false,
      "inputs": [],
      "name": "calculateRefund",
      "outputs": [],
      "payable": false,
      "stateMutability": "nonpayable",
      "type": "function"
    },
    {
      "constant": false,
      "inputs": [],
      "name": "widthdrawRefund",
      "outputs": [],
      "payable": false,
      "stateMutability": "nonpayable",
      "type": "function"
    },
    {
      "constant": false,
      "inputs": [],
      "name": "withdrawPayment",
      "outputs": [],
      "payable": false,
      "stateMutability": "nonpayable",
      "type": "function"
    }
  ],
  "bytecode": "0x6080604052604051611106380380611106833981018060405281019080805182019291906020018051906020019092919050505033600160006101000a81548173ffffffffffffffffffffffffffffffffffffffff021916908373ffffffffffffffffffffffffffffffffffffffff160217905550816000908051906020019061008a929190610105565b5080600260006101000a81548173ffffffffffffffffffffffffffffffffffffffff021916908373ffffffffffffffffffffffffffffffffffffffff16021790555042600381905550346006819055506000600960006101000a81548160ff021916908360028111156100f957fe5b021790555050506101aa565b828054600181600116156101000203166002900490600052602060002090601f016020900481019282601f1061014657805160ff1916838001178555610174565b82800160010185558215610174579182015b82811115610173578251825591602001919060010190610158565b5b5090506101819190610185565b5090565b6101a791905b808211156101a357600081600090555060010161018b565b5090565b90565b610f4d806101b96000396000f3006080604052600436106100e6576000357c0100000000000000000000000000000000000000000000000000000000900463ffffffff168063090f610b146100eb57806324c12bf6146101165780632bdc32ff146101a65780633da3b3fb146101fd57806341c0e1b51461025457806369bad82b1461026b5780637959f3b9146102d4578063871ef6db146102ff57806397eee2fe14610316578063a118babd14610341578063a88dbb3614610358578063aa8c217c146103e8578063b9e0994a14610413578063bc977bb61461043e578063c19d93fb14610455578063dd6105691461048e575b600080fd5b3480156100f757600080fd5b506101006104a5565b6040518082815260200191505060405180910390f35b34801561012257600080fd5b5061012b6104ab565b6040518080602001828103825283818151815260200191508051906020019080838360005b8381101561016b578082015181840152602081019050610150565b50505050905090810190601f1680156101985780820380516001836020036101000a031916815260200191505b509250505060405180910390f35b3480156101b257600080fd5b506101bb610549565b604051808273ffffffffffffffffffffffffffffffffffffffff1673ffffffffffffffffffffffffffffffffffffffff16815260200191505060405180910390f35b34801561020957600080fd5b5061021261056f565b604051808273ffffffffffffffffffffffffffffffffffffffff1673ffffffffffffffffffffffffffffffffffffffff16815260200191505060405180910390f35b34801561026057600080fd5b50610269610595565b005b34801561027757600080fd5b506102d2600480360381019080803590602001908201803590602001908080601f0160208091040260200160405190810160405280939291908181526020018383808284378201915050505050509192919290505050610628565b005b3480156102e057600080fd5b506102e9610814565b6040518082815260200191505060405180910390f35b34801561030b57600080fd5b5061031461081a565b005b34801561032257600080fd5b5061032b6108d1565b6040518082815260200191505060405180910390f35b34801561034d57600080fd5b506103566108d7565b005b34801561036457600080fd5b5061036d610acd565b6040518080602001828103825283818151815260200191508051906020019080838360005b838110156103ad578082015181840152602081019050610392565b50505050905090810190601f1680156103da5780820380516001836020036101000a031916815260200191505b509250505060405180910390f35b3480156103f457600080fd5b506103fd610b6b565b6040518082815260200191505060405180910390f35b34801561041f57600080fd5b50610428610b71565b6040518082815260200191505060405180910390f35b34801561044a57600080fd5b50610453610b77565b005b34801561046157600080fd5b5061046a610d38565b6040518082600281111561047a57fe5b60ff16815260200191505060405180910390f35b34801561049a57600080fd5b506104a3610d4b565b005b60075481565b60008054600181600116156101000203166002900480601f0160208091040260200160405190810160405280929190818152602001828054600181600116156101000203166002900480156105415780601f1061051657610100808354040283529160200191610541565b820191906000526020600020905b81548152906001019060200180831161052457829003601f168201915b505050505081565b600260009054906101000a900473ffffffffffffffffffffffffffffffffffffffff1681565b600160009054906101000a900473ffffffffffffffffffffffffffffffffffffffff1681565b600160009054906101000a900473ffffffffffffffffffffffffffffffffffffffff1673ffffffffffffffffffffffffffffffffffffffff163373ffffffffffffffffffffffffffffffffffffffff16141561062657600160009054906101000a900473ffffffffffffffffffffffffffffffffffffffff1673ffffffffffffffffffffffffffffffffffffffff16ff5b565b600260009054906101000a900473ffffffffffffffffffffffffffffffffffffffff168073ffffffffffffffffffffffffffffffffffffffff163373ffffffffffffffffffffffffffffffffffffffff161415156106ee576040517f08c379a00000000000000000000000000000000000000000000000000000000081526004018080602001828103825260168152602001807f53656e646572206e6f7420617574686f72697a65642e0000000000000000000081525060200191505060405180910390fd5b60018060028111156106fc57fe5b600960009054906101000a900460ff16600281111561071757fe5b1415156107b2576040517f08c379a000000000000000000000000000000000000000000000000000000000815260040180806020018281038252602b8152602001807f46756e6374696f6e2063616e6e6f742062652063616c6c656420696e2063757281526020017f72656e742073746174652e00000000000000000000000000000000000000000081525060400191505060405180910390fd5b6107ba61081a565b600060075411156107ca5761080f565b6002600960006101000a81548160ff021916908360028111156107e957fe5b02179055508260059080519060200190610804929190610e7c565b506006546008819055505b505050565b60045481565b6000600281111561082757fe5b600960009054906101000a900460ff16600281111561084257fe5b14801561085157506000600354115b80156108635750620151806003544203115b15610876576006546007819055506108cf565b6001600281111561088357fe5b600960009054906101000a900460ff16600281111561089e57fe5b1480156108ad57506000600454115b80156108bf57506203f4806004544203115b156108ce576006546007819055505b5b565b60085481565b6000600260009054906101000a900473ffffffffffffffffffffffffffffffffffffffff168073ffffffffffffffffffffffffffffffffffffffff163373ffffffffffffffffffffffffffffffffffffffff1614151561099f576040517f08c379a00000000000000000000000000000000000000000000000000000000081526004018080602001828103825260168152602001807f53656e646572206e6f7420617574686f72697a65642e0000000000000000000081525060200191505060405180910390fd5b60028060028111156109ad57fe5b600960009054906101000a900460ff1660028111156109c857fe5b141515610a63576040517f08c379a000000000000000000000000000000000000000000000000000000000815260040180806020018281038252602b8152602001807f46756e6374696f6e2063616e6e6f742062652063616c6c656420696e2063757281526020017f72656e742073746174652e00000000000000000000000000000000000000000081525060400191505060405180910390fd5b60006008541415610a7357610ac8565b600854925060006008819055503373ffffffffffffffffffffffffffffffffffffffff166108fc849081150290604051600060405180830381858888f19350505050158015610ac6573d6000803e3d6000fd5b505b505050565b60058054600181600116156101000203166002900480601f016020809104026020016040519081016040528092919081815260200182805460018160011615610100020316600290048015610b635780601f10610b3857610100808354040283529160200191610b63565b820191906000526020600020905b815481529060010190602001808311610b4657829003601f168201915b505050505081565b60065481565b60035481565b600260009054906101000a900473ffffffffffffffffffffffffffffffffffffffff168073ffffffffffffffffffffffffffffffffffffffff163373ffffffffffffffffffffffffffffffffffffffff16141515610c3d576040517f08c379a00000000000000000000000000000000000000000000000000000000081526004018080602001828103825260168152602001807f53656e646572206e6f7420617574686f72697a65642e0000000000000000000081525060200191505060405180910390fd5b6000806002811115610c4b57fe5b600960009054906101000a900460ff166002811115610c6657fe5b141515610d01576040517f08c379a000000000000000000000000000000000000000000000000000000000815260040180806020018281038252602b8152602001807f46756e6374696f6e2063616e6e6f742062652063616c6c656420696e2063757281526020017f72656e742073746174652e00000000000000000000000000000000000000000081525060400191505060405180910390fd5b6001600960006101000a81548160ff02191690836002811115610d2057fe5b021790555042600481905550610d3461081a565b5050565b600960009054906101000a900460ff1681565b6000600160009054906101000a900473ffffffffffffffffffffffffffffffffffffffff168073ffffffffffffffffffffffffffffffffffffffff163373ffffffffffffffffffffffffffffffffffffffff16141515610e13576040517f08c379a00000000000000000000000000000000000000000000000000000000081526004018080602001828103825260168152602001807f53656e646572206e6f7420617574686f72697a65642e0000000000000000000081525060200191505060405180910390fd5b60006007541415610e2357610e78565b600754915060006007819055503373ffffffffffffffffffffffffffffffffffffffff166108fc839081150290604051600060405180830381858888f19350505050158015610e76573d6000803e3d6000fd5b505b5050565b828054600181600116156101000203166002900490600052602060002090601f016020900481019282601f10610ebd57805160ff1916838001178555610eeb565b82800160010185558215610eeb579182015b82811115610eea578251825591602001919060010190610ecf565b5b509050610ef89190610efc565b5090565b610f1e91905b80821115610f1a576000816000905550600101610f02565b5090565b905600a165627a7a723058203ee3aae6cf05f3d03cb21d628d66baa5038fbeb0fe107a02ed62b99ee98931f20029",
  "source": "pragma solidity ^0.4.24;\n\ncontract Courier {\n    string public code;\n    address public consignor;\n    address public carrier;\n    uint public dispatchedTimestamp;\n    uint public pickupTimestamp;\n    string public pod;\n    uint256 public amount;\n    uint256 public pendingRefund;\n    uint256 public pendingPayment;\n    States public state;\n\n    enum States {\n        Dispatched,\n        PickedUp,\n        Delivered\n    }\n\n    constructor(string _code, address _carrier) public payable {\n        consignor = msg.sender;\n        code = _code;\n        carrier = _carrier;\n        dispatchedTimestamp = now;\n        amount = msg.value;\n        state = States.Dispatched;\n    }\n    \n    function kill() public \n    {\n      if(msg.sender == consignor) selfdestruct(consignor);\n    }\n\n    modifier onlyBy(address _account)\n    {\n        require(msg.sender == _account, \"Sender not authorized.\");\n        _;\n    }\n    \n    modifier onlyInState(States _state) {\n        require(state == _state, \"Function cannot be called in current state.\");\n        _;\n    }    \n    \n    function pickedUp() public onlyBy(carrier) onlyInState(States.Dispatched) {\n        state = States.PickedUp;\n        pickupTimestamp = now;\n        calculateRefund();\n    }\n    \n    function delivered(string _pod) public onlyBy(carrier) onlyInState(States.PickedUp) {\n        calculateRefund();\n        if (pendingRefund > 0) return;\n        state = States.Delivered;\n        pod = _pod;\n        pendingPayment = amount;\n    }\n    \n    function calculateRefund() public {\n        if (state == States.Dispatched && dispatchedTimestamp > 0 && now - dispatchedTimestamp > 24 hours){\n            pendingRefund = amount;\n        }\n        else if (state == States.PickedUp && pickupTimestamp > 0 && now - pickupTimestamp > 72 hours){\n            pendingRefund = amount;\n        }\n    }\n    \n    function widthdrawRefund() public onlyBy(consignor) {\n        if (pendingRefund == 0) return;\n        uint256 pendingRefundTemp = pendingRefund;\n        pendingRefund = 0;\n        msg.sender.transfer(pendingRefundTemp);\n    }\n\n    function withdrawPayment() public onlyBy(carrier) onlyInState(States.Delivered) {\n        if (pendingPayment == 0) return;\n        uint256 pendingPaymentTemp = pendingPayment;\n        pendingPayment = 0;\n        msg.sender.transfer(pendingPaymentTemp);\n    }\n\n}",
  "sourcePath": "/Volumes/Macintosh HD/Users/seb/Projects/Ethereum/Courier/contracts/Courier.sol",
  "compiler": {
    "name": "solc",
    "version": "0.4.24+commit.e67f0147.Emscripten.clang"
  },
  "schemaVersion": "2.0.1",
  "updatedAt": "2018-08-08T05:59:05.157Z"
}